:020000040000FA
:060000000A128A11ED2F27
:100D1E0002340634043405340134093408340A34F8
:100D2E0083160313081088100811881183120313F9
:100D3E0008108810081188117108B6007008B500E7
:100D4E0008007E088A007F0882000A128A11A826EF
:100D5E000A128A118000840A04087D0603190034E1
:100D6E00FF0A0319FE0AAC2ECA2EC730F200BF2EA0
:100D7E00F20BBE2EC22EC32E0130F0020030031C29
:100D8E00F103F102CA2E70087104031DCF2ED02E6E
:100D9E00BC2ED12E0800F401F501D52E701CD82ED4
:100DAE00D92EDF2E7208F4070318F50A7308F5071B
:100DBE0001300310F20DF30DFF3E031DE02E013046
:100DCE000310F10CF00CFF3E031DE72E70087104AA
:100DDE00031DF22EF32ED52EF42E7508F100740895
:100DEE00F000F92E08000430F0000030F1000A1275
:100DFE008A1197260A128A11042F68308312031360
:100E0E00A4000130A500F430A6000130A700013087
:100E1E000A128A1122270A128A11E830F0000330D2
:100E2E00F1000A128A11BB260A128A11042F042F0E
:100E3E000A128A11002883120313AA00B430F60096
:100E4E000030F7002508F1002408F0003608F30002
:100E5E003508F2000A128A11D2260A128A11710876
:100E6E00F9007008F8000A128A117A270A128A11FC
:100E7E00770883120313A9007608A800AB01AC0112
:100E8E006A2F8312031337082D3E84000808F039A9
:100E9E008313000488002A0837070739FB007B08F4
:100EAE00B7002708F1002608F0000A128A11BB26A7
:100EBE000A128A11013083120313AB070318AC0A0E
:100ECE000030AC076A2F2C08803AFB002908803AC4
:100EDE007B02031D742F28082B02031C772F782FFB
:100EEE00482F792F080083120313A101F71F802FBB
:100EFE00812F892FF609F709F60A0319F70AA101BE
:100F0E00A10A892FF91F8C2F8D2F972FF809F90918
:100F1E00F80A0319F90A0130FA007A08A106972F88
:100F2E00A201A3017608770403199E2F9F2FDC2FB1
:100F3E00A001A00AAE2F01300310F60DF70DFF3EF3
:100F4E00031DA32F0130FA007A08A007AE2FF71F5A
:100F5E00B12FB22FA22FB42FB42F01300310A20D38
:100F6E00A30DFF3E031DB52F77087902031DC12F78
:100F7E0076087802031CC42FC52FCD2F7608F802F1
:100F8E007708031CF903F9022214CD2F0130031048
:100F9E00F70CF60CFF3E031DCE2F0130A002031DF1
:100FAE00D92FDA2FB42FDC2FDC2F21080319E02FD5
:100FBE00E12FE72FA209A309A20A0319A30AE72F1B
:100FCE002308F7002208F600EC2F080083133530B3
:100FDE00FD000630FE008F30FF002D3084000A1217
:100FEE008A11AC260A128A11B70183010A128A11DC
:020FFE00FA2EC9
:04400E00D4E0FFFFFC
:00000001FF
