:020000040000FA
:060000000A128A11E92F2B
:100C680002340634043405340134093408340A34AF
:100C7800023404340134083483160313081088102E
:100C8800081188118312031308108810081188119D
:100C98007108BB007008BA0008007E088A007F0847
:100CA80082000A128A1151260A128A118000840AC7
:100CB80004087D0603190034FF0A0319FE0A552E9D
:100CC800732EC730F200682EF20B672E6B2E6C2E37
:100CD8000130F0020030031CF103F102732E70089A
:100CE8007104031D782E792E652E7A2E08000430A3
:100CF800F0000030F1000A128A1140260A128A1107
:100D0800852E683083120313B0000130B100F4302F
:100D1800B2000130B3000830FD007D08B400013096
:100D28000A128A1139270A128A11852E852E0A126B
:100D38008A110028F401F501A12E701CA42EA52EFD
:100D4800AB2E7208F4070318F50A7308F50701308B
:100D58000310F20DF30DFF3E031DAC2E01300310FE
:100D6800F10CF00CFF3E031DB32E70087104031D37
:100D7800BE2EBF2EA12EC02E7508F1007408F000FB
:100D8800C52E080083120313AD01F71FCC2ECD2EFC
:100D9800D52EF609F709F60A0319F70AAD01AD0AC7
:100DA800D52EF91FD82ED92EE32EF809F909F80AFD
:100DB8000319F90A0130FA007A08AD06E32EAE01EC
:100DC800AF01760877040319EA2EEB2E282FAC0121
:100DD800AC0AFA2E01300310F60DF70DFF3E031D85
:100DE800EF2E0130FA007A08AC07FA2EF71FFD2E15
:100DF800FE2EEE2E002F002F01300310AE0DAF0D8A
:100E0800FF3E031D012F77087902031D0D2F760879
:100E18007802031C102F112F192F7608F802770873
:100E2800031CF903F9022E14192F01300310F70CD3
:100E3800F60CFF3E031D1A2F0130AC02031D252FAF
:100E4800262F002F282F282F2D0803192C2F2D2F60
:100E5800332FAE09AF09AE0A0319AF0A332F2F0893
:100E6800F7002E08F600382F0800FC00083083121F
:100E780003133406031D412F422F912FB430F6007F
:100E88000030F7003108F1003008F0003B08F300AB
:100E98003A08F2000A128A119E260A128A1171086B
:100EA800F9007008F8000A128A11C6260A128A1177
:100EB800770883120313B8007608B700B401842FAB
:100EC800831203133908203E84000808F03983137D
:100ED800000488007C0839070739FB007B08B90043
:100EE8003308F1003208F0000A128A1164260A1247
:100EF8008A110130FB007B0883120313B407842F87
:100F08003808803A803C031D8B2F37083402031CB5
:100F18008E2F8F2F642F912F912F0430831203135C
:100F28003406031D982F992FE82F6830F6000130FA
:100F3800F7003108F1003008F0003B08F3003A08E8
:100F4800F2000A128A119E260A128A117108F90003
:100F58007008F8000A128A11C6260A128A11770840
:100F680083120313B8007608B700B401DB2F83128D
:100F780003133908283E84000808F0398313000455
:100F880088007C0839070339FB007B08B90033085F
:100F9800F1003208F0000A128A1164260A128A1136
:100FA8000130FB007B0883120313B407DB2F3808DA
:100FB800803A803C031DE22F37083402031CE52FDA
:100FC800E62FBB2FE82FE82F080083132C30FD00F5
:100FD8000630FE003430FF00203084000A128A11E7
:100FE80055260A128A11B501B601B701B801B9012F
:080FF80083010A128A117B2E0D
:04400E00D4E0FFFFFC
:00000001FF
